:020000040000FA
:100000000A128A11E62FFF1B0D2883137F1883170E
:100010000008840A0319FF0A080000308A00040857
:10002000840A82070034013400340A340034643412
:100030000034E83403341034273432343734303465
:1000400039340034693472343D34253464342C340A
:1000500068346C343D34253464342C346D34743459
:100060003D34253464340034733469347334743467
:1000700065346D346134203462346C346F347134DF
:1000800075346534613464346F34003443346C3413
:10009000613476346534203449346E3463346F34DB
:1000A00072347234653463347434613400344334EC
:1000B0006C34613476346534203443346F347234B4
:1000C00072346534633474346134003450347234BF
:1000D0006534733473342034613420344B346534E4
:1000E0007934003441346C34613472346D346134A9
:0600F00020343F3400340F
:10051A0064008001840A04060319003404068E2A42
:10052A00F030FF007F08831603138605F030FF00C2
:10053A007F08860481138316031789010800013096
:10054A000A128A11AF230A128A110830F400C9303C
:10055A00F300F30BAE2AF40BAE2AB32A08003134A7
:10056A003234333441343434353436344234373423
:10057A003834393443342A343034233444347E080A
:10058A008A007F0882000A128A11C4220A128A117A
:10059A008000840A04087D0603190034FF0A03193F
:1005AA00FE0AC82AF00183120313871CDD2ADE2AF9
:1005BA00E02AF001F00A071CE32AE42AE62AF001FD
:1005CA00F00A071DE92AEA2AEC2AF001F00A700863
:1005DA0008000A128A11A4220A128A11F50122308D
:1005EA00F6008030F70000300A128A1139230A1205
:1005FA008A1104308312031389000630FC00133079
:10060A00FB00AD30FA00FA0B082BFB0B082BFC0B96
:10061A00082B0F2B83120313A5010800282B74083B
:10062A00FF00730884000A128A1103200A128A1131
:10063A000A128A11E5230A128A110130F3070318F4
:10064A00F40A0030F407740883120313FF007308D6
:10065A0084000A128A1103200A128A11003A031D21
:10066A00372B382B142B0800F800023078020318B5
:10067A003F2B402B4B2B75080F398038F90079082E
:10068A000A128A11AF230A128A11552B75080F39DB
:10069A00C038F90079080A128A11AF230A128A119E
:1006AA007608F3007708F4000A128A1113230A1253
:1006BA008A1108000A128A11A4220A128A11F50163
:1006CA006030F6008030F70000300A128A113923B0
:1006DA000A128A1104308312031389000630FC00BF
:1006EA001330FB00AD30FA00FA0B792BFB0B792B98
:1006FA00FC0B792B802B83120313A501A50A080092
:10070A008316031388012730F400F530F300F30B46
:10071A008C2BF40B8C2B02300A128A11AF230A128B
:10072A008A1128300A128A11AF230A128A1101305B
:10073A000A128A11AF230A128A110C300A128A117C
:10074A00AF230A128A1106300A128A11AF230A123B
:10075A008A110800F200F0307205F00083120313C8
:10076A0008080F39700488000810881400008312E2
:10077A00031388100330F1009730F000F00BC32BFD
:10078A00F10BC32BC82B7208F00004300310F00DD4
:10079A00FF3E031DCB2B8312031308080F39700485
:1007AA008800881400008312031388100830F100AF
:1007BA00C930F000F00BDF2BF10BDF2BE42B080024
:1007CA00F200F0307205F0008312031308080F39A3
:1007DA007004880008148814000083120313881018
:1007EA000330F1009730F000F00BF92BF10BF92BE5
:1007FA00FE2B7208F00004300310F00DFF3E031DBB
:10080A00012C8312031308080F3970048800881416
:10081A0000008312031388100830F100C930F00079
:10082A00F00B152CF10B152C1A2C080077087804FC
:10083A000319202C212C502CFB01FB0A2F2C0130F0
:10084A000310F70DF80DFF3E031D252C0130FF00A4
:10085A007F08FB07F81F322C332C242C78087A02E5
:10086A00031D392C77087902031C3C2C3D2C432CA0
:10087A007708F9027808031CFA03FA020130031018
:10088A00F80CF70CFF3E031D442C0130FB02031D3C
:10089A004F2C502C332C7A08F8007908F7000800FE
:1008AA00F401F5017008710403195C2C5D2C942C79
:1008BA00F601F60A6B2C01300310F00DF10DFF3E24
:1008CA00031D612C0130FF007F08F607F11F6E2C13
:1008DA006F2C602C01300310F40DF50DFF3E031D43
:1008EA00702C71087302031D7C2C70087202031CA1
:1008FA007F2C802C872C7008F2027108031CF303EA
:10090A00F302741401300310F10CF00CFF3E031DC6
:10091A00882C0130F602031D932C942C6F2C750839
:10092A00F1007408F00008000A128A11D7220A128C
:10093A008A11013A031DA22CA32CDD2C0330831249
:10094A000313A5001030BC002308CF00D0014F08C4
:10095A00BD005008BE002208D100D2015108BF00D4
:10096A005208C0002108D300D4015308C10054081A
:10097A00C20026300A128A11F4260A128A11F501D7
:10098A002630F6000030F70000300A128A113923A7
:10099A000A128A11063083120313D1001330D000D1
:1009AA00AD30CF00CF0BD72CD00BD72CD10BD72CF7
:1009BA000800F500132D7508840083130008031935
:1009CA00E72CE82CF82C700884000A128A110D20F2
:1009DA000A128A11F30075088400000873060319C5
:1009EA00F72CF82C0B2D700884000A128A110D209E
:1009FA000A128A11F300750884000008F4007308CB
:100A0A007402F000F101031CF103232D0130FF00F1
:100A1A007F08F5070130FF007F08F0070130F10277
:100A2A000030031CF203F202710A031D202D720A20
:100A3A00031D202D212DE02CF001F1010800831661
:100A4A000313890183120313890171308316031377
:100A5A008F000A128A1185230A128A110A128A1130
:100A6A0095220A128A110730831603138700003071
:100A7A008312031387180130A300003007180130CE
:100A8A00A200003007190130A100A5018312031347
:100A9A002508031D512D522D582D0A128A117F2522
:100AAA000A128A114B2D2503031D5C2D5D2D632D22
:100ABA000A128A1199240A128A114B2D023025062C
:100ACA00031D682D692D6F2D0A128A11EE220A1252
:100ADA008A114B2D03302506031D742D752D7B2D90
:100AEA000A128A115F230A128A114B2D4B2D0A1200
:100AFA008A1100280A128A11A4220A128A11F501FF
:100B0A005430F6008030F70000300A128A11392377
:100B1A000A128A11C0300A128A11AF230A128A11E4
:100B2A000A128A1113260A128A11FD007D08031976
:100B3A009F2DA02DB22D7D080A128A11E5230A12D3
:100B4A008A11831203132408373E84007D08831315
:100B5A0080000130FF007F08A4070230FC00043047
:100B6A00FB00BA30FA00FA0BB82DFB0BB82DFC0BC0
:100B7A00B82D00000530831203132402031CC62D6E
:100B8A00C72D952D0B30F0000430F1000030F20033
:100B9A0037300A128A11DE240A128A117008710487
:100BAA00031DD82DD92DF12D0A128A11A4220A1259
:100BBA008A11F5014530F6008030F70000300A123C
:100BCA008A1139230A128A1183120313A501A50A6D
:100BDA00A40102308900092E0A128A11A4220A12DB
:100BEA008A11F5013430F6008030F70000300A121D
:100BFA008A1139230A128A110130FF007F088312F1
:100C0A000313A0070130890004302002031C0E2EB2
:100C1A000F2E122EA4010230A50008003C308400D9
:100C2A005530F0000408F1001030F200700884001A
:100C3A0083130008F300F00A710884007308800027
:100C4A00F10AF20B1B2E83120313CC01CD01CE0144
:100C5A00831203134D084E04031D342E352E5A2ECB
:100C6A00FE3086004230F000F00B392E00003F2E95
:100C7A003C08CC0083120313061E442E452E3D2E3B
:100C8A00482E3D08CC00861E4B2E4C2E462E4F2E4B
:100C9A003E08CC00061F522E532E4D2E562E3F08CC
:100CAA00CC00861F592E5A2E542E4D034E04031D76
:100CBA005F2E602E852EFD3086004230F000F00B4C
:100CCA00642E00006A2E4008CC0083120313061E0D
:100CDA006F2E702E682E732E4108CC00861E762E3B
:100CEA00772E712E7A2E4208CC00061F7D2E7E2E7C
:100CFA00782E812E4308CC00861F842E852E7F2EC7
:100D0A0002304D064E04031D8B2E8C2EB12EFB3065
:100D1A0086004230F000F00B902E0000962E440818
:100D2A00CC0083120313061E9B2E9C2E942E9F2EFC
:100D3A004508CC00861EA22EA32E9D2EA62E46085E
:100D4A00CC00061FA92EAA2EA42EAD2E4708CC0031
:100D5A00861FB02EB12EAB2E03304D064E04031D56
:100D6A00B72EB82EDD2EF73086004230F000F00B99
:100D7A00BC2E0000C22E4808CC0083120313061EA4
:100D8A00C72EC82EC02ECB2E4908CC00861ECE2ECA
:100D9A00CF2EC92ED22E4A08CC00061FD52ED62E0B
:100DAA00D02ED92E4B08CC00861FDC2EDD2ED72E56
:100DBA000130CD070318CE0A0030CE074E08803A1C
:100DCA00FF0080307F02031DEC2E04304D02031C0D
:100DDA00EF2EF02E2D2E831203134C0808008312D7
:100DEA000313CD00C801C9013D30C600CD2F2530FF
:100DFA004E060319012F022F122F4D0884004E08A8
:100E0A00831380000130FF007F08CD070130C80737
:100E1A000318C90A0030C907CD2FC7010130BC0722
:100E2A00FF303C0784000A128A110D200A128A1127
:100E3A00CE00C300C4014408003A0319252FCD2F60
:100E4A004308003A0319DD2F643A0319302F0D3A8B
:100E5A000319302FCD2F4608840083130008CB00D6
:100E6A00840A0008CC000230FF007F08C607CC1FA6
:100E7A003F2F402F492F0330FF007F08C704CB09BB
:100E8A00CC09CB0A0319CC0ACE01CE0A4E08C300FC
:100E9A004307013E84000A128A110D200A128A11A0
:100EAA00C4000A128A110D200A128A11C5004508C7
:100EBA004C02031D622F44084B020318652F662F4C
:100ECA00672F712F0130FF007F08CE0705304E06CD
:100EDA00031D702F712F4B2F470803390319762FE3
:100EEA00772F862F4D0884002D3083138000013020
:100EFA00FF007F08CD070130C8070318C90A003070
:100F0A00C9074E08CA00C42F0A30F7000030F8009B
:100F1A004A08C3004307013E84000A128A110D20C1
:100F2A000A128A11F0000A128A110D200A128A1175
:100F3A00F1004C08F3004B08F2000A128A115524FA
:100F4A000A128A117108FA007008F9000A128A1145
:100F5A001B240A128A117708303E83120313CE002B
:100F6A004D0884004E08831380000130FF007F087B
:100F7A00CD070130C8070318C90A0030C907FF3076
:100F8A00FF007F08CA074A0A031DCC2FCD2F892FDD
:100F9A000130BC07FF303C0784000A128A110D2079
:100FAA000A128A11CE004E08031DDC2FDD2FFC2EFB
:100FBA004D088400831380014908BD004808BC001D
:100FCA00080083136530FD000230FE00B430FF00D4
:100FDA00553084000A128A11C8220A128A11203056
:100FEA0084003C300A128A118D220A128A11830166
:060FFA000A128A11242DE9
:04400E00D520FF3F7B
:00000001FF
