:020000040000FA
:060000000A128A11F32F21
:10000A00831603139F171F129F12831203131F08CD
:10001A003F3940389F0008000310720D730DF90034
:10002A007908031D19281A2823280030F300003004
:10003A00F2000030F1000030F00086287008F40069
:10004A007108F5007208F6007308F7001F300310F4
:10005A00F70CF60CF50CF40CFF3E031D2C28740863
:10006A00F800F217FF30F005FF30F105FF30F20516
:10007A000030F3059630F902F91F442845285F2815
:10008A007908803A973E03184B284C284D281A289D
:10009A0001300310F30CF20CF10CF00CFF3E031DBF
:1000AA004E280130FF007F08F907031D5D285E28EE
:1000BA004D28762820307902031C64286528712887
:1000CA001A280130F4000310F00DF10DF20DF30DB2
:1000DA00F40B68280130F9027908031D752876287F
:1000EA006628780803197A287B288628F009F109F6
:1000FA00F209F309F00A0319F10A0319F20A0319BA
:10010A00F30A08008312031346088039D000460810
:10011A00C7004707D700C51F932894289528571466
:10012A005708031999289A28AA28570A031D9E28AE
:10013A009F28A7280030C6000030C5000030C40040
:10014A000030C300C517C601B2280030C60000300F
:10015A00C5000030C4000030C30042088039FF00E7
:10016A007F08D0064208C7004707D800C11FBE282B
:10017A00BF28C028581458080319C428C528D528E8
:10018A00580A031DC928CA28D2280030C2000030E4
:10019A00C1000030C0000030BF00C117C201DD2815
:1001AA000030C2000030C1000030C0000030BF0083
:1001BA004208410440043F04031DE428E528FE28C0
:1001CA000030C6000030C5000030C4000030C30053
:1001DA008030C5047F30C6045008FF007F08C6047B
:1001EA004608C2004508C1004408C0004308BF00D1
:1001FA00552A5708031D022903290C290030C20079
:10020A000030C1000030C0000030BF00552A570836
:10021A00C700C8014808CA0058084702C900031C99
:10022A00CA0349087F3ED1004A080318013E003E2E
:10023A00D2004608CF004508CE004408CD00430846
:10024A00CC000030C6000030C5000030C4000030C9
:10025A00C3000030D6000030D5000030D400003092
:10026A00D300D8018229580803193C293D295D2960
:10027A000130C7000310CC0DCD0DCE0DCF0DC70B2D
:10028A003F290130C7000310C30DC40DC50DC60DAB
:10029A00C70B4829D61F5229532954294314013020
:1002AA00C7000310D30DD40DD50DD60DC70B562993
:1002BA0042084F02031D6B2941084E02031D6B2998
:1002CA0040084D02031D6B293F084C02031C6E298E
:1002DA006F297E2956173F08CC024008031C400F9D
:1002EA00CD024108031C410FCE024208031C420FF3
:1002FA00CF020130FF007F08D8071A305802031CCA
:10030A008729882938294F084E044D044C040319BB
:10031A008F299029AF295314AF290130C700031040
:10032A00C30DC40DC50DC60DC70B9429D61F9E2932
:10033A009F29A02943140130C7000310D30DD40DFF
:10034A00D50DD60DC70BA229FF30D1070318D20A43
:10035A00FF30D207C51FB229B3299229D801D61F67
:10036A00B729B829D429FF305305C700FF305405EF
:10037A00C800FF305505C9007F305605CA004A0833
:10038A004904480447040319CB29CC29CF29D801A9
:10039A00D80AD429431CD229D329D429CC295808CC
:1003AA000319D829D9290A2A0130C30700300318AA
:1003BA000130C407003003180130C50700300318A4
:1003CA000130C607461CEA29EB290A2A4308C70056
:1003DA004408C8004508C9004608CA000130CB00D5
:1003EA004A0DCA0CC90CC80CC70CCB0BF5294A0814
:1003FA00C6004908C5004808C4004708C3000130C0
:10040A00D1070318D20A0030D2075208803AFF00F7
:10041A0080307F02031D132AFF305102031C162A63
:10042A00172A252AFF3083120313D1000030D20085
:10043A000030C6000030C5000030C4000030C300E0
:10044A00831203135208803AFF0080307F02031D93
:10045A00302A013051020318332A342A412A8312DE
:10046A000313D101D2010030C6000030C5000030AC
:10047A00C4000030C300D001831203135108D7000F
:10048A00571C482A492A4B2AC5174F2A7F30FF0092
:10049A007F08C5055708C7000310470CC600F12896
:1004AA000800831203135C088039E9005C08E10044
:1004BA006107EB00DB1F622A632A642A6B146B084C
:1004CA000319682A692A792A6B0A031D6D2A6E2A7A
:1004DA00762A0030DC000030DB000030DA00003021
:1004EA00D900DB17DC01812A0030DC000030DB0098
:1004FA000030DA000030D90060088039EA006A0862
:10050A0069060319892A8A2A8B2A69176008E10071
:10051A006107EA00DF1F922A932A942A6A146A085A
:10052A000319982A992AA92A6A0A031D9D2A9E2A2A
:10053A00A62A0030E0000030DF000030DE00003084
:10054A00DD00DF17E001B12A0030E0000030DF00F3
:10055A000030DE000030DD006B086A020318B62A9C
:10056A00B72ADD2A691FBA2ABB2ABF2A8030FF00B0
:10057A007F08E9066B08EC006A08EB006C08EA00E1
:10058A005908EC005D08D9006C08DD005A08EC0037
:10059A005E08DA006C08DE005B08EC005F08DB002E
:1005AA006C08DF005C08EC006008DC006C08E00006
:1005BA00EC016A08E100E2016208E4006B086102EA
:1005CA00E300031CE4036408803AFF0080307F02E2
:1005DA00031DF12A1A306302031CF42AF52A2C2B74
:1005EA00831203135C085B045A045904031DFE2A90
:1005FA00002B0130012B0030EC000030DC00003011
:10060A00DB000030DA000030D9006A08EB00342B36
:10061A006C1C102B112B182B6C08E1000310610CB9
:10062A000138EC001A2B0310EC0C591C1D2B1E2B45
:10063A001F2BEC170130E1005C0DDC0CDB0CDA0C33
:10064A00D90CE10B212B0130FF007F08EB07831245
:10065A0003136A086B02031C332B342B0D2B691B03
:10066A00372B382B812B6B08031D3C2B3D2B462B3C
:10067A000030DC000030DB000030DA000030D90046
:10068A00AD2C5D08D9075E0803110318013E031952
:10069A004F2BDA075F0803110318013E0319562B83
:1006AA00DB07600803110318013E03195D2BDC0701
:1006BA005C1C602B612B352C6C1C642B652B6C2B02
:1006CA006C08E1000310610C0138EC006E2B03107A
:1006DA00EC0C591C712B722B732BEC170130E100B7
:1006EA005C0DDC0CDB0CDA0CD90CE10B752B013040
:1006FA00FF007F08EB07352C5C08803AFF00600892
:10070A00803A7F02031D932B5F085B02031D932B24
:10071A005E085A02031D932B5D0859020318962B93
:10072A00972BEF2BFF30E100FF30E200FF30E300B0
:10073A00FF30E4005D08E5005E08E6005F08E700B8
:10074A006008E8005908E5025A08031C5A0FAE2B44
:10075A00AF2BE6025B08031C5B0FB42BB52BE70239
:10076A005C08031C5C0FBA2BBB2BE8026508E10787
:10077A0066080318660FC22BC32BE2076708031823
:10078A00670FC82BC92BE30768080318680AE40730
:10079A006408DC006308DB006208DA006108D9003B
:1007AA008030FF007F08E906EC09EC0A6C08031D9B
:1007BA00DF2BE02BFD2B0130D90700300318013065
:1007CA00DA07003003180130DB0700300318013064
:1007DA00DC07FD2B5D08D9025E08031C5E0FDA02F6
:1007EA005F08031C5F0FDB026008031C600FDC025A
:1007FA005C085B045A045904031D042C052C312C93
:10080A006C08031D092C0A2C312C0030DC00003046
:10081A00DB000030DA000030D900AD2C0130E100F5
:10082A000310D90DDA0DDB0DDC0DE10B152CEC1FD5
:10083A001F2C202C212C59146C1C242C252C282CE0
:10084A000314EC0D2A2C0310EC0D6B0803192E2C43
:10085A002F2C312C0130EB02DB1F342C352C132CBE
:10086A00EA01EC1F392C3A2C482C6C087F39031901
:10087A003F2C402C432CEA01EA0A482C591C462CEE
:10088A00472C482C402C6A0803194C2C4D2C812CDF
:10089A000130D907003003180130DA070030031895
:1008AA000130DB07003003180130DC075C1C5E2CCA
:1008BA005F2C812C5908E1005A08E2005B08E3002A
:1008CA005C08E4000130E500640DE40CE30CE20C82
:1008DA00E10CE50B692C6408DC006308DB006208A4
:1008EA00DA006108D9006B0A03197C2C7D2C812C53
:1008FA000130FF007F08EB076B0A0319852C862C51
:10090A008B2C6B08031D8A2C8B2C992C0030DC0055
:10091A000030DB000030DA000030D9006B08031D1C
:10092A00972C982C992CE9016B1C9C2C9D2C9F2CA4
:10093A00DB17A32C7F30FF007F08DB056B08E10083
:10094A000310610CDC00E91FAB2CAC2CAD2CDC17BE
:10095A0008008312031328088039B2002808AD0062
:10096A002D07B800A71FBA2CBB2CBC2C381438088A
:10097A000319C02CC12CD02C380A031DC52CC62C37
:10098A00CE2C0030A8000030A7000030A6000030AE
:10099A00A500A717D82C0030A8000030A700003007
:1009AA00A6000030A5002C088039FF007F08B20697
:1009BA002C08AD002D07B300AB1FE42CE52CE62C68
:1009CA00331433080319EA2CEB2CFA2C330A031DCF
:1009DA00EF2CF02CF82C0030AC000030AB000030CB
:1009EA00AA000030A900AB17022D0030AC0000307D
:1009FA00AB000030AA000030A90033080319062D05
:100A0A00072D0C2D3808031D0B2D0C2D152D00302C
:100A1A00A8000030A7000030A6000030A500F22F81
:100A2A002508F0002B080A168A11C5260A128A110F
:100A3A00710883120313BE007008BD003D08AD00A3
:100A4A00AE01AF01B0013008B7002F08B6002E087A
:100A5A00B5002D08B4003E08AD00AE01AF01B001EB
:100A6A003008BC002F08BB002E08BA002D08B900B8
:100A7A002608F0002A080A168A11C5260A128A11BF
:100A8A00710883120313BE007008BD003D08AD0053
:100A9A00AE01AF01B0012D08B4072E0803110318E7
:100AAA00013E0319592DB5072F0803110318013EFA
:100ABA000319602DB607300803110318013E031904
:100ACA00672DB7073E08AD00AE01AF01B0012D0892
:100ADA00B9072E0803110318013E0319752DBA0729
:100AEA002F0803110318013E03197C2DBB07300898
:100AFA0003110318013E0319832DBC072708F000D0
:100B0A0029080A168A11C5260A128A11710883123F
:100B1A000313BE007008BD003D08AD00AE01AF0171
:100B2A00B0012D08B4072E0803110318013E03195A
:100B3A009F2DB5072F0803110318013E0319A62D8F
:100B4A00B607300803110318013E0319AD2DB70784
:100B5A003E08AD00AE01AF01B0012D08B9072E085D
:100B6A0003110318013E0319BB2DBA072F080311FD
:100B7A000318013E0319C22DBB07300803110318DD
:100B8A00013E0319C92DBC070830AD000310B40D8E
:100B9A00B50DB60DB70DAD0BCB2D2608F000290803
:100BAA000A168A11C5260A128A11710883120313BA
:100BBA00BE007008BD003D08AD003E08AE00AF01A2
:100BCA00B0012D08B4072E0803110318013E0319BA
:100BDA00EF2DB5072F0803110318013E0319F62D4F
:100BEA00B607300803110318013E0319FD2DB70794
:100BFA002508F0002A080A168A11C5260A128A113F
:100C0A00710883120313BE007008BD003D08AD00D1
:100C1A003E08AE00AF01B0012D08B4072E0803113B
:100C2A000318013E03191A2EB5072F0803110318DA
:100C3A00013E0319212EB607300803110318013E9D
:100C4A000319282EB7070830AD000310B40DB50DEF
:100C5A00B60DB70DAD0B2A2E2508F00029080A1685
:100C6A008A11C5260A128A11710883120313BE005B
:100C7A007008BD003D08AD003E08AE00AF01B001EE
:100C8A002D08B4072E0803110318013E03194E2E2E
:100C9A00B5072F0803110318013E0319552EB6078D
:100CAA00300803110318013E03195C2EB707260802
:100CBA00F0002B080A168A11C5260A128A11710831
:100CCA0083120313BE007008BD003D08AD003E0844
:100CDA00AE00AF01B0012D08B9072E0803110318A1
:100CEA00013E0319792EBA072F0803110318013E92
:100CFA000319802EBB07300803110318013E03199C
:100D0A00872EBC072708F0002A080A168A11C5266A
:100D1A000A128A11710883120313BE007008BD00FB
:100D2A003D08AD003E08AE00AF01B0012D08B9077D
:100D3A002E0803110318013E0319A42EBA072F081F
:100D4A0003110318013E0319AB2EBB073008031128
:100D5A000318013E0319B22EBC072708F0002B081E
:100D6A000A168A11C5260A128A11710883120313F8
:100D7A00BE007008BD003D08AD003E08AE00AF01E0
:100D8A00B00108300310AD0DAE0DAF0DB00DFF3E32
:100D9A00031DC72E2D08B9072E0803110318013E9B
:100DAA000319D82EBA072F0803110318013E031995
:100DBA00DF2EBB07300803110318013E0319E62E84
:100DCA00BC073408AD003508AE003608AF00370856
:100DDA00B00018300310B00CAF0CAE0CAD0CFF3ED7
:100DEA00031DEF2E2D08B9072E0803110318013E23
:100DFA000319002FBA072F0803110318013E03191C
:100E0A00072FBB07300803110318013E03190E2FE1
:100E1A00BC070830AD000310B40DB50DB60DB70D03
:100E2A00AD0B102F38083307AD00AE01AE0D2D08FB
:100E3A00823EBD002E080318013EFF3EBE00422F2F
:100E4A000130AD000310B90DBA0DBB0DBC0DAD0BD1
:100E5A00272FB71F312F322F332F39140130AD000E
:100E6A000310B40DB50DB60DB70DAD0B352FFF3010
:100E7A00BD070318BE0AFF30BE07BB1F452F462F0A
:100E8A00252FB301B71F4A2F4B2F672FFF30340589
:100E9A00AD00FF303505AE00FF303605AF007F30BC
:100EAA003705B00030082F042E042D0403195E2FD5
:100EBA005F2F622FB301B30A672F391C652F662F84
:100ECA00672F5F2F330803196B2F6C2F9D2F01306B
:100EDA00B907003003180130BA070030031801308F
:100EEA00BB07003003180130BC073C1C7D2F7E2F46
:100EFA009D2F3908AD003A08AE003B08AF003C0808
:100F0A00B0000130B100300DB00CAF0CAE0CAD0C1E
:100F1A00B10B882F3008BC002F08BB002E08BA007E
:100F2A002D08B9000130BD070318BE0A0030BE07FC
:100F3A003E08803AFF0080307F02031DA62FFF3053
:100F4A003D02031CA92FAA2FB52F7F30831203134A
:100F5A00BC008030BB000030BA000030B900E62F78
:100F6A00831203133E08803AFF0080307F02031D7C
:100F7A00C02F01303D020318C32FC42FD02F0030D9
:100F8A0083120313BC000030BB000030BA000030EB
:100F9A00B900B201E62F831203133D08B800FF30EF
:100FAA00B905FF30BA057F30BB050030BC05381CD7
:100FBA00DF2FE02FE12FBB173808AD0003102D0CEF
:100FCA00BC003208FF007F08BC043C08A8003B08AC
:100FDA00A7003A08A6003908A50008008313D530EF
:100FEA008400EE300A128A1561200A128A118301DE
:100FFA000A128A15572BFF1B0A2883137F18831797
:10100A000008840A0319FF0A080008308A00040845
:10101A00840A82070034013400340A340034643408
:10102A000034E834033410342734003400340034F4
:10103A000034C434FF347F343F348034EF34FF3417
:10104A00BE349034E134A9343E34EC3482347634FC
:10105A00BE348234AD342B343E340E343C34C33483
:10106A00BD348734D13413343D3441347834D334E5
:10107A00BB3463346F346E346434203461346D3479
:10108A006234693465346E34743461346C34653472
:10109A007334003450343D34253464342C3454349D
:1010AA003D342534643400344C343D3425346434BE
:0210BA00003400
:1010C20064008001840A04060319003404066228BD
:1010D20001300A168A1116270A128A150830F400FE
:1010E200C930F300F30B7328F40B73287828080037
:1010F20000307005F80000307105F900803072058B
:10110200FA007F307305FB007B087A0479047804C7
:10111200031D8C288D2895280030F3000030F20042
:101122000030F1000030F00000307405F8000030AB
:101132007505F90080307605FA007F307705FB00EF
:101142007B087A0479047804031DA828A928B12809
:101152000030F7000030F6000030F5000030F400F7
:1011620077087306031DBF2876087206031DBF2881
:1011720075087106031DBF28740870060319C2287A
:10118200C328C5280310C6280314080083120313BA
:101192002308F3002208F2002108F1002008F000E1
:1011A2000030F7000030F6000030F5000030F400A7
:1011B2000A128A1579200A128A15031CE128E228EC
:1011C200F328831203132408840083138001840A02
:1011D20080010030A3000030A2000030A1000030E6
:1011E200A00022298312031323087F39FC00FD018A
:1011F2000310FC0DFD0D240884007C08831380007D
:10120200840A7D088000220D220D0139FC00FD01B7
:10121200240884007C088004840A7D088004240851
:10122200840082308007840F00080318000AFF0040
:10123200FF307F0780008403230880393F38A300F2
:10124200A213080000307005F80000307105F900A3
:1012520080307205FA007F307305FB007B087A0448
:1012620079047804031D362937293F290030F30019
:101272000030F2000030F1000030F0000030740560
:10128200F80000307505F90080307605FA007F30ED
:101292007705FB007B087A0479047804031D522940
:1012A20053295B290030F7000030F6000030F500CA
:1012B2000030F400F31F5E295F2983290030F80013
:1012C2000030F9000030FA008030FB007008F802AC
:1012D2007108031C710F6E296F29F9027208031C31
:1012E200720F74297529FA027308031C730F7A2985
:1012F2007B29FB027B08F3007A08F2007908F100EF
:101302007808F000F71F86298729AB290030F800FA
:101312000030F9000030FA008030FB007408F80257
:101322007508031C750F96299729F9027608031C84
:10133200760F9C299D29FA027708031C770FA229B0
:10134200A329FB027B08F7007A08F6007908F5006A
:101352007808F4008030F3068030F70677087302CD
:10136200031DBD2976087202031DBD29750871028D
:10137200031DBD29740870020318C029C129C3299D
:101382000310C42903140800F80078080319CA29B5
:10139200CB29DF29F31FCE29CF29DF297009FA00D3
:1013A2007109FB007209FC007309FD00FA0A0319B6
:1013B200FB0A0319FC0A0319FD0AE7297308FD0059
:1013C2007208FC007108FB007008FA0073087204CE
:1013D20071047004031DEE29EF29F8290030F3008F
:1013E2000030F2000030F1000030F0007C2A96302C
:1013F200F900082A0130FF007F08F90701300310C5
:10140200FD0CFC0CFB0CFA0CFF3E031D002AFE3007
:101412007D05031D0D2A0E2AFB292A2A0130FF0011
:101422007F08F9070130FA07003003180130FB0783
:10143200003003180130FC07003003180130FD07AB
:1014420001300310FD0CFC0CFB0CFA0CFF3E031DDB
:10145200222AFF307D05031D2F2A302A0F2A3C2A1B
:101462000130F9020130F4000310FA0DFB0DFC0DFE
:10147200FD0DF40B352AFC1B3F2A402A462A023076
:1014820079020318452A462A312A7918492A4A2A12
:10149200522AFF30FA05FF30FB057F30FC05FF3092
:1014A200FD050310F90C7908F400F501F601F701C6
:1014B20018300310F40DF50DF60DF70DFF3E031D68
:1014C2005A2A7408FA047508FB047608FC047708A3
:1014D200FD04780803196E2A6F2A742AF31F722AF0
:1014E200732A742AFD177D08F3007C08F2007B083A
:1014F200F1007A08F0000800831603132508A700FC
:1015020001300310A70DFF3E031D822A0310270D91
:10151200240784000A128A150A200A128A15A800D2
:101522000A128A150A200A128A15A9000A128A15B5
:101532000A200A128A15AA000A128A150A200A1219
:101542008A15AB002B08AF002A08AE002908AD00AF
:101552002808AC00482BFF30A5070318A60AFF3065
:10156200A6072508A70001300310A70DFF3E031DA3
:10157200B52A0310270D240784000A128A150A20AF
:101582000A128A15A8000A128A150A200A128A1556
:10159200A9000A128A150A200A128A15AA000A123A
:1015A2008A150A200A128A15AB002B08831203132C
:1015B200DC00831603132A0883120313DB0083164D
:1015C2000313290883120313DA008316031328086E
:1015D20083120313D900831603132F0883120313F4
:1015E200A800831603132E0883120313A700831681
:1015F20003132D0883120313A600831603132C086A
:1016020083120313A5008316031323088312031303
:10161200AC0083160313220883120313AB00831654
:101622000313210883120313AA008316031320084D
:1016320083120313A9000A128A11AE240A128A1510
:10164200831203132808E0002708DF002608DE00C3
:101652002508DD000A128A1156220A128A158312FF
:1016620003135C0883160313AF00831203135B0892
:1016720083160313AE00831203135A08831603134F
:10168200AD0083120313590883160313AC00250817
:101692002604031D4D2B4E2BAC2A2F08A3002E0827
:1016A200A2002D08A1002C08A000080071308316AA
:1016B20003138F008801233085001330831603172C
:1016C20088000A128A1105200A128A150A168A113E
:1016D200EC260A128A15F5012F30F6008030F70049
:1016E20000300A168A119F260A128A1515308316AF
:1016F2000313CE004B30CD00BD30CC00CC0B7F2B82
:10170200CD0B7F2BCE0B7F2B862B0030F000F10010
:101712000A168A1158260A128A15710883160313AB
:10172200D0007008CF001A3083160313CD00F730B3
:10173200CC00CC0B9A2BCD0B9A2B9F2B0130F000B7
:101742000030F1000A168A1158260A128A15710809
:1017520083160313D2007008D1005208B500510855
:10176200B4000A128A1575260A128A158316031303
:101772003508D4003408D3001A3083160313CD0081
:10178200F730CC00CC0BC32BCD0BC32BC82B0430B2
:10179200F0000030F1000A168A1158260A128A1542
:1017A200710883160313D8007008D70040308312E3
:1017B2000313A00083160313500883120313A2001D
:1017C200831603134F0883120313A1008316031316
:1017D200540883120313A4008316031353088312BD
:1017E2000313A300DD300A128A153D240A128A155A
:1017F200F501DD30F6000030F70001300A168A11DB
:101802009F260A128A154A3083120313A0008316F8
:101812000313580883120313A200831603135708F5
:1018220083120313A100DD300A128A153D240A1225
:101832008A15F501DD30F6000030F70002300A1695
:101842008A119F260A128A15153083160313CE00B9
:101852004B30CD00BD30CC00CC0B2D2CCD0B2D2C24
:10186200CE0B2D2C342C0A128A1569200A128A15E5
:10187200862B0A128A11002883120313AF00AA01D1
:10188200AB012130A800162D2530300603194A2C51
:101892004B2C5B2C2F08840030088313800001300E
:1018A200FF007F08AF070130AA070318AB0A003018
:1018B200AB07162DA9010130A007FF3020078400D5
:1018C2000A128A150A200A128A15B000A500A6017A
:1018D2002608003A03196E2C162D2508003A031922
:1018E200262D643A0319792C0D3A0319792C162DF9
:1018F2002808840083130008AD00840A0008AE00A3
:101902000230FF007F08A807AE1F882C892C922C7A
:101912000330FF007F08A904AD09AE09AD0A03191F
:10192200AE0AB001B00A3008A5002507013E8400C6
:101932000A128A150A200A128A15A6000A128A15A4
:101942000A200A128A15A70027082E02031DAB2CB3
:1019520026082D020318AE2CAF2CB02CBA2C013065
:10196200FF007F08B00705303006031DB92CBA2CE2
:10197200942C290803390319BF2CC02CCF2C2F0813
:1019820084002D30831380000130FF007F08AF07F1
:101992000130AA070318AB0A0030AB073008AC00CD
:1019A2000D2D0A30F7000030F8002C08A50025079D
:1019B200013E84000A128A150A200A128A15F000D2
:1019C2000A128A150A200A128A15F1002E08F3005B
:1019D2002D08F2000A168A11BC270A128A1571080C
:1019E200FA007008F9000A168A1182270A128A156B
:1019F2007708303E83120313B0002F0884003008AA
:101A0200831380000130FF007F08AF070130AA076F
:101A12000318AB0A0030AB07FF30FF007F08AC07AA
:101A22002C0A031D152D162DD22C0130A007FF30D4
:101A3200200784000A128A150A200A128A15B000A9
:101A42003008031D252D262D452C2F0884008313D5
:101A520080012B08A1002A08A000080083160313A6
:101A62003308F3003208F2003108F1003008F000C8
:101A72000030F7000030F6000030F5000030F400CE
:101A82000A128A1523210A128A150318492D4A2D92
:101A9200592D213083160313D5000030D6000030B3
:101AA200B3000030B2000030B1000030B000742E3C
:101AB200831603133308F3003208F2003108F100F1
:101AC2003008F0000030F7000030F6000030F5007A
:101AD2000030F4000A128A1579200A128A15031CB2
:101AE200732D742D832D223083160313D5000030FD
:101AF200D6000030B3000030B2000030B100003038
:101B0200B000742EBF3083120313DC008030DB0080
:101B12000030DA000030D9004030A8000030A700C1
:101B22000030A6000030A5006D30A4008316031318
:101B3200330883120313A30083160313320883129C
:101B42000313A20083160313310883120313A100A7
:101B520083160313300883120313A0000A128A1596
:101B6200C7200A128A15831203132308AC00220825
:101B7200AB002108AA002008A9000A128A11AE248B
:101B82000A128A15831203132808E0002708DF00CF
:101B92002608DE002508DD000A128A1156220A12E2
:101BA2008A15831203135C0883160313B30083128E
:101BB20003135B0883160313B200831203135A083C
:101BC20083160313B10083120313590883160313F8
:101BD200B000FF3083120313ED070318EE0AFF3043
:101BE200EE07831603133308A3003208A20031085C
:101BF200A1003008A0000B30A4000830A50000307E
:101C0200A6000A128A157D220A128A158316031368
:101C12002308B3002208B2002108B1002008B00056
:101C2200330883120313DC00831603133208831272
:101C32000313DB0083160313310883120313DA0044
:101C420083160313300883120313D9003F30A80010
:101C52003130A7007230A6001830A5006D08F000E0
:101C62006E08F1000030F11BFF30F200F30001308A
:101C72000A128A15C5210A128A15730883120313E0
:101C8200AC007208AB007108AA007008A9000A1221
:101C92008A11AE240A128A15831203132808E0005F
:101CA2002708DF002608DE002508DD000A128A1157
:101CB20056220A128A15831203135C088316031331
:101CC200B300831203135B0883160313B20083125B
:101CD20003135A0883160313B1008312031359081E
:101CE20083160313B0000800FF3083160313B600F7
:101CF2000330B70034083602B8003508031C350A31
:101D02003702B900BA01B91BBA033A08BB00C130A5
:101D120083120313DC002030DB000030DA000030D5
:101D2200D900831603133B08F3003A08F20039087E
:101D3200F1003808F00001300A128A15C5210A1292
:101D42008A15730883120313C2007208C100710856
:101D5200C0007008BF004630C6002030C5002830E1
:101D6200C4000030C3000A128A1187200A128A15A1
:101D7200831203134208E0004108DF004008DE003E
:101D82003F08DD000A128A1156220A128A158312AE
:101D920003135C0883160313BF00831203135B084B
:101DA20083160313BE00831203135A088316031308
:101DB200BD0083120313590883160313BC0041307C
:101DC20083120313C2002030C1000030C000003073
:101DD200BF00831603133F0883120313C600831642
:101DE20003133E0883120313C500831603133D0831
:101DF20083120313C400831603133C0883120313D4
:101E0200C3000A128A1187200A128A158312031349
:101E1200420883160313B300831203134108831687
:101E22000313B20083120313400883160313B10095
:101E3200831203133F0883160313B0000A128A1594
:101E42002F250A128A15831603133308C30032089A
:101E5200C2003108C1003008C000413083120313B0
:101E6200DC005B30DB009830DA00EA30D900831600
:101E72000313430883120313E0008316031342087B
:101E820083120313DF008316031341088312031323
:101E9200DE0083160313400883120313DD000A12C7
:101EA2008A1156220A128A15831203135C08C20091
:101EB2005B08C1005A08C0005908BF004530C6007F
:101EC2007F30C500A030C4000030C3000A128A115E
:101ED20087200A128A1583120313420883160313FA
:101EE200C70083120313410883160313C60083122B
:101EF2000313400883160313C500831203133F081C
:101F020083160313C400C33083120313DC0088302A
:101F1200DB008030DA000030D90083160313470853
:101F220083120313E000831603134608831203137C
:101F3200DF0083160313450883120313DE008316A2
:101F42000313440883120313DD000A128A11562276
:101F52000A128A15831203135C0883160313CB003B
:101F6200831203135B0883160313CA00831203133D
:101F72005A0883160313C9008312031359088316E0
:101F82000313C800433083120313DC008830DB00E4
:101F92009330DA003330D900831603134B088312CF
:101FA2000313E000831603134A0883120313DF00AE
:101FB20083160313490883120313DE0083160313E7
:101FC200480883120313DD000A128A1156220A12EC
:101FD2008A15831603134B08F3004A08F2004908D6
:101FE200F1004808F0000A128A1111200A128A151B
:0E1FF200710883160313B5007008B4000800D0
:102CB00070080F39F200F20DF20D831203131F0892
:102CC0007206C33972069F001F141330F200F20B14
:102CD000672E6A2E831203139F149F18702E712E75
:102CE0006D2E1F101E08F100831603131E08F0003E
:102CF00008008E2E7408FF00730884000A128A15DB
:102D000000200A168A110A168A114C270A168A11FF
:102D10000130F3070318F40A0030F4077408831233
:102D20000313FF00730884000A128A1500200A1694
:102D30008A11003A031D9D2E9E2E7A2E0800F8005F
:102D4000023078020318A52EA62EB12E75080F3971
:102D50008038F90079080A168A1116270A168A118E
:102D6000BB2E75080F39C038F90079080A168A1188
:102D700016270A168A117608F3007708F4000A1657
:102D80008A1179260A168A110800F800F401F50163
:102D90007008F200F3017208F6007308F700781C5F
:102DA000D22ED32ED92E7608F4070318F50A770809
:102DB000F50701300310F60DF70DFF3E031DDA2E67
:102DC0000310F80C7808031DE62EE72ECF2E7508A9
:102DD000F1007408F00008008316031388012730FF
:102DE000F400F530F300F30BF32EF40BF32E023066
:102DF0000A168A1116270A168A1128300A168A110D
:102E000016270A168A1101300A168A1116270A1681
:102E10008A110C300A168A1116270A168A110630F2
:102E20000A168A1116270A168A110800F200F030D5
:102E30007205F0008312031308080F39700488002C
:102E40000810881400008312031388100330F10067
:102E50009730F000F00B2A2FF10B2A2F2F2F72083A
:102E6000F00004300310F00DFF3E031D322F8312DB
:102E7000031308080F3970048800881400008312B7
:102E8000031388100830F100C930F000F00B462F12
:102E9000F10B462F4B2F0800F200F0307205F000C6
:102EA0008312031308080F3970048800081488146B
:102EB00000008312031388100330F1009730F000F4
:102EC000F00B602FF10B602F652F7208F0000430BB
:102ED0000310F00DFF3E031D682F83120313080833
:102EE0000F397004880088140000831203138810BF
:102EF0000830F100C930F000F00B7C2FF10B7C2F73
:102F0000812F0800770878040319872F882FB72F9F
:102F1000FB01FB0A962F01300310F70DF80DFF3E61
:102F2000031D8C2F0130FF007F08FB07F81F992F2E
:102F30009A2F8B2F78087A02031DA02F7708790229
:102F4000031CA32FA42FAA2F7708F9027808031CCB
:102F5000FA03FA0201300310F80CF70CFF3E031DD0
:102F6000AB2F0130FB02031DB62FB72F9A2F7A0823
:102F7000F8007908F7000800F401F5017008710401
:102F80000319C32FC42FFB2FF601F60AD22F0130ED
:102F90000310F00DF10DFF3E031DC82F0130FF009F
:102FA0007F08F607F11FD52FD62FC72F013003104A
:102FB000F40DF50DFF3E031DD72F71087302031D9D
:102FC000E32F70087202031CE62FE72FEE2F700824
:102FD000F2027108031CF303F302741401300310AE
:102FE000F10CF00CFF3E031DEF2F0130F602031D24
:102FF000FA2FFB2FD62F7508F1007408F000080097
:04400E00D520FF3F7B
:00000001FF
