:020000040000FA
:100000000A128A11DC2F831603139F171F129F12E7
:10001000831203131F083F3940389F0008000A1657
:100020008A111C220A128A11013A031D1828192864
:1000300057280A168A11E9210A128A1104308312FC
:100040000313EF003430A0008316031363088312F8
:100050000313B300B4013308A1003408A2008316CF
:100060000313620883120313B500B6013508A30019
:100070003608A40083160313610883120313B70024
:10008000B8013708A5003808A60090300A128A1572
:100090003D240A128A11F5019030F6000130F70074
:1000A00000300A168A119D220A128A1160280A1647
:1000B0008A11E9210A128A11023083120313EF0018
:1000C000153083120313B5004B30B400BD30B300BC
:1000D000B30B6828B40B6828B50B68286F28080094
:1000E0008312031346088039D0004608C70047072B
:1000F000D700C51F7C287D287E2857145708031970
:10010000822883289328570A031D87288828902847
:100110000030C6000030C5000030C4000030C3000D
:10012000C517C6019B280030C6000030C50000304E
:10013000C4000030C30042088039FF007F08D006A9
:100140004208C7004707D800C11FA728A828A92828
:10015000581458080319AD28AE28BE28580A031DA4
:10016000B228B328BB280030C2000030C1000030E4
:10017000C0000030BF00C117C201C6280030C20055
:100180000030C1000030C0000030BF004208410410
:1001900040043F04031DCD28CE28E7280030C600C8
:1001A0000030C5000030C4000030C3008030C504FA
:1001B0007F30C6045008FF007F08C6044608C2000E
:1001C0004508C1004408C0004308BF003E2A570844
:1001D000031DEB28EC28F5280030C2000030C100D8
:1001E0000030C0000030BF003E2A5708C700C801D9
:1001F0004808CA0058084702C900031CCA03490836
:100200007F3ED1004A080318013E003ED200460856
:10021000CF004508CE004408CD004308CC00003094
:10022000C6000030C5000030C4000030C3000030FC
:10023000D6000030D5000030D4000030D300D80103
:100240006B29580803192529262946290130C7009A
:100250000310CC0DCD0DCE0DCF0DC70B28290130CD
:10026000C7000310C30DC40DC50DC60DC70B312942
:10027000D61F3B293C293D2943140130C7000310F8
:10028000D30DD40DD50DD60DC70B3F2942084F0213
:10029000031D542941084E02031D542940084D02F4
:1002A000031D54293F084C02031C5729582967296C
:1002B00056173F08CC024008031C400FCD024108EE
:1002C000031C410FCE024208031C420FCF02013033
:1002D000FF007F08D8071A305802031C70297129C3
:1002E00021294F084E044D044C040319782979291B
:1002F0009829531498290130C7000310C30DC40D69
:10030000C50DC60DC70B7D29D61F872988298929C8
:1003100043140130C7000310D30DD40DD50DD60DF5
:10032000C70B8B29FF30D1070318D20AFF30D20741
:10033000C51F9B299C297B29D801D61FA029A1294B
:10034000BD29FF305305C700FF305405C800FF30FA
:100350005505C9007F305605CA004A0849044804BB
:1003600047040319B429B529B829D801D80ABD29E9
:10037000431CBB29BC29BD29B52958080319C1292B
:10038000C229F3290130C307003003180130C40724
:10039000003003180130C507003003180130C607CC
:1003A000461CD329D429F3294308C7004408C800B0
:1003B0004508C9004608CA000130CB004A0DCA0CE6
:1003C000C90CC80CC70CCB0BDE294A08C60049086B
:1003D000C5004808C4004708C3000130D10703180E
:1003E000D20A0030D2075208803AFF0080307F02E4
:1003F000031DFC29FF305102031CFF29002A0E2A8D
:10040000FF3083120313D1000030D2000030C60049
:100410000030C5000030C4000030C3008312031355
:100420005208803AFF0080307F02031D192A0130F4
:10043000510203181C2A1D2A2A2A83120313D101F0
:10044000D2010030C6000030C5000030C4000030CA
:10045000C300D001831203135108D700571C312A5F
:10046000322A342AC517382A7F30FF007F08C50595
:100470005708C7000310470CC600DA28080083128B
:1004800003135C088039E9005C08E1006107EB00B8
:10049000DB1F4B2A4C2A4D2A6B146B080319512A77
:1004A000522A622A6B0A031D562A572A5F2A0030F5
:1004B000DC000030DB000030DA000030D900DB1750
:1004C000DC016A2A0030DC000030DB000030DA009A
:1004D0000030D90060088039EA006A08690603190B
:1004E000722A732A742A69176008E1006107EA001A
:1004F000DF1F7B2A7C2A7D2A6A146A080319812A55
:10050000822A922A6A0A031D862A872A8F2A0030A5
:10051000E0000030DF000030DE000030DD00DF17DB
:10052000E0019A2A0030E0000030DF000030DE00F9
:100530000030DD006B086A0203189F2AA02AC62A31
:10054000691FA32AA42AA82A8030FF007F08E90691
:100550006B08EC006A08EB006C08EA005908EC0034
:100560005D08D9006C08DD005A08EC005E08DA006E
:100570006C08DE005B08EC005F08DB006C08DF0045
:100580005C08EC006008DC006C08E000EC016A0824
:10059000E100E2016208E4006B086102E300031C71
:1005A000E4036408803AFF0080307F02031DDA2AEA
:1005B0001A306302031CDD2ADE2A152B8312031373
:1005C0005C085B045A045904031DE72AE92A013038
:1005D000EA2A0030EC000030DC000030DB000030A4
:1005E000DA000030D9006A08EB001D2B6C1CF92AD8
:1005F000FA2A012B6C08E1000310610C0138EC00B1
:10060000032B0310EC0C591C062B072B082BEC17A3
:100610000130E1005C0DDC0CDB0CDA0CD90CE10BD9
:100620000A2B0130FF007F08EB07831203136A08CF
:100630006B02031C1C2B1D2BF62A691B202B212B64
:100640006A2B6B08031D252B262B2F2B0030DC007B
:100650000030DB000030DA000030D900962C5D0855
:10066000D9075E0803110318013E0319382BDA0776
:100670005F0803110318013E03193F2BDB076008D5
:1006800003110318013E0319462BDC075C1C492BA0
:100690004A2B1E2C6C1C4D2B4E2B552B6C08E1004D
:1006A0000310610C0138EC00572B0310EC0C591CA3
:1006B0005A2B5B2B5C2BEC170130E1005C0DDC0C42
:1006C000DB0CDA0CD90CE10B5E2B0130FF007F084C
:1006D000EB071E2C5C08803AFF006008803A7F021E
:1006E000031D7C2B5F085B02031D7C2B5E085A02F6
:1006F000031D7C2B5D08590203187F2B802BD82B00
:10070000FF30E100FF30E200FF30E300FF30E400A3
:100710005D08E5005E08E6005F08E7006008E800A5
:100720005908E5025A08031C5A0F972B982BE6022A
:100730005B08031C5B0F9D2B9E2BE7025C08031CD0
:100740005C0FA32BA42BE8026508E10766080318D9
:10075000660FAB2BAC2BE20767080318670FB12BB2
:10076000B22BE30768080318680AE4076408DC0092
:100770006308DB006208DA006108D9008030FF00FE
:100780007F08E906EC09EC0A6C08031DC82BC92B8D
:10079000E62B0130D907003003180130DA070030AA
:1007A00003180130DB07003003180130DC07E62BAB
:1007B0005D08D9025E08031C5E0FDA025F08031CA5
:1007C0005F0FDB026008031C600FDC025C085B0447
:1007D0005A045904031DED2BEE2B1A2C6C08031D33
:1007E000F22BF32B1A2C0030DC000030DB00003041
:1007F000DA000030D900962C0130E1000310D90D49
:10080000DA0DDB0DDC0DE10BFE2BEC1F082C092CA7
:100810000A2C59146C1C0D2C0E2C112C0314EC0DED
:10082000132C0310EC0D6B080319172C182C1A2C21
:100830000130EB02DB1F1D2C1E2CFC2BEA01EC1FF0
:10084000222C232C312C6C087F390319282C292CBD
:100850002C2CEA01EA0A312C591C2F2C302C312C7B
:10086000292C6A080319352C362C6A2C0130D9073B
:10087000003003180130DA07003003180130DB07BD
:10088000003003180130DC075C1C472C482C6A2C14
:100890005908E1005A08E2005B08E3005C08E40044
:1008A0000130E500640DE40CE30CE20CE10CE50B17
:1008B000522C6408DC006308DB006208DA0061087F
:1008C000D9006B0A0319652C662C6A2C0130FF00D5
:1008D0007F08EB076B0A03196E2C6F2C742C6B08C6
:1008E000031D732C742C822C0030DC000030DB00E4
:1008F0000030DA000030D9006B08031D802C812CF9
:10090000822CE9016B1C852C862C882CDB178C2C07
:100910007F30FF007F08DB056B08E1000310610CEE
:10092000DC00E91F942C952C962CDC170800831210
:10093000031328088039B2002808AD002D07B8003D
:10094000A71FA32CA42CA52C381438080319A92CF4
:10095000AA2CB92C380A031DAE2CAF2CB72C0030B2
:10096000A8000030A7000030A6000030A500A7179F
:10097000C12C0030A8000030A7000030A6000030D5
:10098000A5002C088039FF007F08B2062C08AD00B6
:100990002D07B300AB1FCD2CCE2CCF2C3314330836
:1009A0000319D32CD42CE32C330A031DD82CD92CB7
:1009B000E12C0030AC000030AB000030AA00003069
:1009C000A900AB17EB2C0030AC000030AB000030BE
:1009D000AA000030A90033080319EF2CF02CF52CE5
:1009E0003808031DF42CF52CFE2C0030A800003034
:1009F000A7000030A6000030A500DB2F2508F0007E
:100A00002B080A168A11C3220A128A11710883124E
:100A10000313BE007008BD003D08AD00AE01AF017C
:100A2000B0013008B7002F08B6002E08B5002D0819
:100A3000B4003E08AD00AE01AF01B0013008BC000B
:100A40002F08BB002E08BA002D08B9002608F000B8
:100A50002A080A168A11C3220A128A1171088312FF
:100A60000313BE007008BD003D08AD00AE01AF012C
:100A7000B0012D08B4072E0803110318013E031915
:100A8000422DB5072F0803110318013E0319492D04
:100A9000B607300803110318013E0319502DB7079C
:100AA0003E08AD00AE01AF01B0012D08B9072E0818
:100AB00003110318013E03195E2DBA072F08031115
:100AC0000318013E0319652DBB07300803110318F5
:100AD000013E03196C2DBC072708F00029080A16EF
:100AE0008A11C3220A128A11710883120313BE00ED
:100AF0007008BD003D08AD00AE01AF01B0012D088A
:100B0000B4072E0803110318013E0319882DB507F9
:100B10002F0803110318013E03198F2DB607300863
:100B200003110318013E0319962DB7073E08AD00C7
:100B3000AE01AF01B0012D08B9072E08031103184B
:100B4000013E0319A42DBA072F0803110318013E13
:100B50000319AB2DBB07300803110318013E03191D
:100B6000B22DBC070830AD000310B40DB50DB60DA5
:100B7000B70DAD0BB42D2608F00029080A168A110E
:100B8000C3220A128A11710883120313BE0070086F
:100B9000BD003D08AD003E08AE00AF01B0012D081C
:100BA000B4072E0803110318013E0319D82DB50709
:100BB0002F0803110318013E0319DF2DB607300873
:100BC00003110318013E0319E62DB7072508F000AD
:100BD0002A080A168A11C3220A128A11710883127E
:100BE0000313BE007008BD003D08AD003E08AE0016
:100BF000AF01B0012D08B4072E0803110318013E00
:100C00000319032EB5072F0803110318013E03191A
:100C10000A2EB607300803110318013E0319112EDE
:100C2000B7070830AD000310B40DB50DB60DB70D04
:100C3000AD0B132E2508F00029080A168A11C322CD
:100C40000A128A11710883120313BE007008BD00D6
:100C50003D08AD003E08AE00AF01B0012D08B4075D
:100C60002E0803110318013E0319372EB5072F086C
:100C700003110318013E03193E2EB6073008031175
:100C80000318013E0319452EB7072608F0002B086C
:100C90000A168A11C3220A128A11710883120313D9
:100CA000BE007008BD003D08AD003E08AE00AF01BB
:100CB000B0012D08B9072E0803110318013E0319CE
:100CC000622EBA072F0803110318013E0319692E7B
:100CD000BB07300803110318013E0319702EBC072F
:100CE0002708F0002A080A168A11C3220A128A115C
:100CF000710883120313BE007008BD003D08AD00EB
:100D00003E08AE00AF01B0012D08B9072E0803114F
:100D10000318013E03198D2EBA072F08031103187B
:100D2000013E0319942EBB07300803110318013E3E
:100D300003199B2EBC072708F0002B080A168A11FE
:100D4000C3220A128A11710883120313BE007008AD
:100D5000BD003D08AD003E08AE00AF01B001083057
:100D60000310AD0DAE0DAF0DB00DFF3E031DB02E47
:100D70002D08B9072E0803110318013E0319C12ECF
:100D8000BA072F0803110318013E0319C82EBB0729
:100D9000300803110318013E0319CF2EBC07340895
:100DA000AD003508AE003608AF003708B000183087
:100DB0000310B00CAF0CAE0CAD0CFF3E031DD82ED3
:100DC0002D08B9072E0803110318013E0319E92E57
:100DD000BA072F0803110318013E0319F02EBB07B1
:100DE000300803110318013E0319F72EBC07083021
:100DF000AD000310B40DB50DB60DB70DAD0BF92E4A
:100E000038083307AD00AE01AE0D2D08823EBD009F
:100E10002E080318013EFF3EBE002B2F0130AD000F
:100E20000310B90DBA0DBB0DBC0DAD0B102FB71FC4
:100E30001A2F1B2F1C2F39140130AD000310B40DD5
:100E4000B50DB60DB70DAD0B1E2FFF30BD07031846
:100E5000BE0AFF30BE07BB1F2E2F2F2F0E2FB30150
:100E6000B71F332F342F502FFF303405AD00FF3024
:100E70003505AE00FF303605AF007F303705B000D6
:100E800030082F042E042D040319472F482F4B2F11
:100E9000B301B30A502F391C4E2F4F2F502F482F1C
:100EA00033080319542F552F862F0130B90700300E
:100EB00003180130BA07003003180130BB070030B7
:100EC00003180130BC073C1C662F672F862F39089A
:100ED000AD003A08AE003B08AF003C08B00001305E
:100EE000B100300DB00CAF0CAE0CAD0CB10B712FCE
:100EF0003008BC002F08BB002E08BA002D08B9002E
:100F00000130BD070318BE0A0030BE073E08803A14
:100F1000FF0080307F02031D8F2FFF303D02031C36
:100F2000922F932F9E2F7F3083120313BC008030AB
:100F3000BB000030BA000030B900CF2F831203137A
:100F40003E08803AFF0080307F02031DA92F013048
:100F50003D020318AC2FAD2FB92F003083120313BD
:100F6000BC000030BB000030BA000030B900B20154
:100F7000CF2F831203133D08B800FF30B905FF30AF
:100F8000BA057F30BB050030BC05381CC82FC92FFF
:100F9000CA2FBB173808AD0003102D0CBC00320857
:100FA000FF007F08BC043C08A8003B08A7003A08E3
:100FB000A6003908A50008008317B130FD001130E4
:100FC000FE00F930FF00A13084000A168A110D22BC
:100FD0000A128A1190308400A1300A128A15D0209A
:100FE0000A128A118313D8308400EA300A128A1553
:100FF000D0200A128A11EF0183010A128A155B2B95
:10100000FF1B0A2883137F1883170008840A03191B
:10101000FF0A080008308A000408840A82070034A6
:10102000013400340A34003464340034E8340334C6
:10103000103427340034003400340034C434FF3416
:101040007F343F348034EF34FF34BE349034E134A5
:10105000A9343E34EC3482347634BE348234AD3438
:101060002B343E340E343C34C334BD348734D13455
:1010700013343D3441347834D334BB3432343734D0
:10108000303439340034693472343D3425346434B6
:101090002C3468346C343D34253464342C346D3451
:1010A00074343D3425346434003443346C34613456
:1010B00076346534203449346E3463346F3472349A
:1010C00072346534633474346134003443346C34C2
:1010D000613476346534203443346F34723472347E
:1010E0006534633474346134003449346E346734A5
:1010F0007234653473346534203463346C34613451
:1011000076346534003449346E34743465346C3468
:101110006934673465346E34743465340034503463
:101120003D34253464342C3454343D342534643413
:10113000003453346534673475347234693464343C
:1011400061346434003441346D346234693465345C
:101150006E34743461346C34003462346C346F3403
:10116000713475346534613464346F3400347334ED
:1011700069347334743465346D346134003441340B
:101180006C34613472346D3461340034433461340E
:101190007334613400344C343D34253464340034C9
:1011A00064008001840A0406031900340406D1286F
:1011B0000030F000F1000A168A1133220A128A1553
:1011C000710883160313D0007008CF001A308316FD
:1011D0000313CD00F730CC00CC0BEC28CD0BEC2862
:1011E000F1280130F0000030F1000A168A11332294
:1011F0000A128A15710883160313D4007008D300ED
:101200005408B5005308B4000A128A1575260A124C
:101210008A15831603133508D2003408D1001A301A
:1012200083160313CD00F730CC00CC0B1529CD0B62
:1012300015291A290430F0000030F1000A168A112D
:1012400033220A128A15710883160313DB00700813
:10125000DA00803083120313A000831603135008B2
:1012600083120313A200831603134F088312031380
:10127000A10083160313520883120313A4008316DC
:101280000313510883120313A30090300A128A1526
:101290003D240A128A15F5019030F6000130F7005E
:1012A00001300A168A119D220A128A15BC30831257
:1012B0000313A000831603135B0883120313A20019
:1012C000831603135A0883120313A10090300A12E5
:1012D0008A153D240A128A15F5019030F600013076
:1012E000F70002300A168A119D220A128A15831607
:1012F00003135408803AFF0080307F02031D8229C7
:101300001F305302031C852986298B29053083123F
:101310000313EF008F2983120313EF01EF0A1F302D
:1013200083160313CE007130CD001D30CC00CC0BE2
:101330009729CD0B9729CE0B97299E290800831654
:1013400003132508A70001300310A70DFF3E031D5E
:10135000A4290310270D240784000A128A150A20E5
:101360000A128A15A8000A128A150A200A128A157A
:10137000A9000A128A150A200A128A15AA000A125E
:101380008A150A200A128A15AB002B08AF002A081A
:10139000AE002908AD002808AC006A2AFF30A50776
:1013A0000318A60AFF30A6072508A700013003107E
:1013B000A70DFF3E031DD7290310270D2407840026
:1013C0000A128A150A200A128A15A8000A128A151A
:1013D0000A200A128A15A9000A128A150A200A127E
:1013E0008A15AA000A128A150A200A128A15AB0069
:1013F0002B0883120313DC00831603132A088312BD
:101400000313DB0083160313290883120313DA0086
:1014100083160313280883120313D90083160313BA
:101420002F0883120313A800831603132E088312B8
:101430000313A700831603132D0883120313A600BA
:10144000831603132C0883120313A50083160313BA
:10145000230883120313AC0083160313220883129C
:101460000313AB0083160313210883120313AA008E
:1014700083160313200883120313A9000A128A118A
:1014800097240A128A15831203132808E0002708FC
:10149000DF002608DE002508DD000A128A113F223F
:1014A0000A128A15831203135C0883160313AF0014
:1014B000831203135B0883160313AE008312031316
:1014C0005A0883160313AD008312031359088316B9
:1014D0000313AC0025082604031D6F2A702ACE29A9
:1014E0002F08A3002E08A2002D08A1002C08A000A0
:1014F000080020308400A130F0000408F100103012
:10150000F2007008840083170008F300F00A7108E5
:101510008400831373088000F10AF20B812A83127E
:101520000313B001B101B201831203133108320475
:10153000031D9B2A9C2AC12AFE3086004230F000FF
:10154000F00BA02A0000A62A2008B0008312031383
:10155000061EAB2AAC2AA42AAF2A2108B000861E98
:10156000B22AB32AAD2AB62A2208B000061FB92A29
:10157000BA2AB42ABD2A2308B000861FC02AC12A6D
:10158000BB2A31033204031DC62AC72AEC2AFD30C8
:1015900086004230F000F00BCB2A0000D12A24084C
:1015A000B00083120313061ED62AD72ACF2ADA2ABE
:1015B0002508B000861EDD2ADE2AD82AE12A260860
:1015C000B000061FE42AE52ADF2AE82A2708B0002F
:1015D000861FEB2AEC2AE62A023031063204031D6C
:1015E000F22AF32A182BFB3086004230F000F00B71
:1015F000F72A0000FD2A2808B00083120313061EF4
:10160000022B032BFB2A062B2908B000861E092B70
:101610000A2B042B0D2B2A08B000061F102B112BB0
:101620000B2B142B2B08B000861F172B182B122BFB
:10163000033031063204031D1E2B1F2B442BF730C1
:1016400086004230F000F00B232B0000292B2C08E1
:10165000B00083120313061E2E2B2F2B272B322BA9
:101660002D08B000861E352B362B302B392B2E083B
:10167000B000061F3C2B3D2B372B402B2F08B00012
:10168000861F432B442B3E2B0130B1070318B20AAF
:101690000030B2073208803AFF0080307F02031D1D
:1016A000532B04303102031C562B572B942A8312E0
:1016B00003133008080083160313880123308500C4
:1016C00013308316031788008316031389018312CE
:1016D000031389017130831603138F000A168A11D0
:1016E000EA220A128A150A168A11DA210A128A15C2
:1016F00007308316031387000A128A1103200A1287
:101700008A150030831203138718013083160313E0
:10171000E30000308312031307180130831603130C
:10172000E2000030831203130719013083160313FC
:10173000E10003108312031305180314003003188B
:10174000013083160313D500D6015508DE00560874
:10175000DF000310831203138518031400300318ED
:10176000013083160313D500D6015508DC00560856
:10177000DD00031083120313851A031400300318CD
:10178000013083160313D500D6015508DA00560838
:10179000DB00F501B730F6008030F70000300A16A4
:1017A0008A119D220A128A15F5017430F6008030E4
:1017B000F70002300A168A119D220A128A15153086
:1017C00083160313D7004B30D600BD30D500D50BA0
:1017D000E72BD60BE72BD70BE72BEE2B831203134C
:1017E000EF01831203136F08031DF72BF82BFE2B59
:1017F0000A168A119D260A128A15F12B6F03031D02
:10180000022C032C092C0A128A110F200A128A15A5
:10181000F12B03306F06031D0E2C0F2C152C0A160E
:101820008A1178230A128A15F12B04306F06031DE2
:101830001A2C1B2C212C0A168A1146230A128A15EF
:10184000F12B02306F06031D262C272C2D2C0A129B
:101850008A15D8200A128A15F12B05306F06031D50
:10186000322C332C392C0A168A1114230A128A15A9
:10187000F12BF12B0A128A11002883120313B100F5
:10188000AC01AD012130AA00162D25303206031916
:101890004A2C4B2C5B2C31088400320883178000C3
:1018A0000130FF007F08B1070130AC070318AD0A13
:1018B0000030AD07162DAB010130A007FF30200727
:1018C00084000A128A150A200A128A15B200A7009B
:1018D000A8012808003A03196E2C162D2708003A93
:1018E0000319262D643A0319792C0D3A0319792C22
:1018F000162D2A08840083130008AF00840A00080C
:10190000B0000230FF007F08AA07B01F882C892C86
:10191000922C0330FF007F08AB04AF09B009AF0A77
:101920000319B00AB201B20A3208A7002707013E24
:1019300084000A128A150A200A128A15A8000A12BF
:101940008A150A200A128A15A90029083002031DE7
:10195000AB2C28082F020318AE2CAF2CB02CBA2CBD
:101960000130FF007F08B20705303206031DB92C95
:10197000BA2C942C2B0803390319BF2CC02CCF2C64
:10198000310884002D30831780000130FF007F086C
:10199000B1070130AC070318AD0A0030AD073208BB
:1019A000AE000D2D0A30F7000030F8002E08A70019
:1019B0002707013E84000A128A150A200A128A1596
:1019C000F0000A128A150A200A128A15F10030085E
:1019D000F3002F08F2000A168A1151240A128A1500
:1019E0007108FA007008F9000A168A1117240A1201
:1019F0008A157708303E83120313B2003108840041
:101A00003208831780000130FF007F08B1070130E2
:101A1000AC070318AD0A0030AD07FF30FF007F08A8
:101A2000AE072E0A031D152D162DD22C0130A0074E
:101A3000FF30200784000A128A150A200A128A152C
:101A4000B2003208031D252D262D452C31088400B7
:101A5000831780012D08A1002C08A0000800831620
:101A600003133308F3003208F2003108F1003008A4
:101A7000F0000030F7000030F6000030F5000030D4
:101A8000F4000A168A11FB250A128A150318492D3B
:101A90004A2D592D213083160313D8000030D90068
:101AA0000030B3000030B2000030B1000030B000B0
:101AB000742E831603133308F3003208F200310842
:101AC000F1003008F0000030F7000030F600003080
:101AD000F5000030F4000A168A11DB240A128A1578
:101AE000031C732D742D832D223083160313D8000D
:101AF0000030D9000030B3000030B2000030B10037
:101B00000030B000742EBF3083120313DC0080302D
:101B1000DB000030DA000030D9004030A80000308F
:101B2000A7000030A6000030A5006D30A400831689
:101B30000313330883120313A3008316031332081D
:101B400083120313A20083160313310883120313B5
:101B5000A10083160313300883120313A0000A1692
:101B60008A1129250A128A15831203132308AC004F
:101B70002208AB002108AA002008A9000A128A1135
:101B800097240A128A15831203132808E0002708F5
:101B9000DF002608DE002508DD000A128A113F2238
:101BA0000A128A15831203135C0883160313B30009
:101BB000831203135B0883160313B200831203130B
:101BC0005A0883160313B1008312031359088316AE
:101BD0000313B000FF3083120313ED070318EE0A5E
:101BE000FF30EE07831603133308A3003208A20068
:101BF0003108A1003008A0000B30A4000830A50077
:101C00000030A6000A128A159F210A128A1583162F
:101C100003132308B3002208B2002108B1002008F2
:101C2000B000330883120313DC0083160313320859
:101C300083120313DB00831603133108831203138B
:101C4000DA0083160313300883120313D9003F30E0
:101C5000A8003130A7007230A6001830A5006D082A
:101C6000F0006E08F1000030F11BFF30F200F300CD
:101C700001300A168A1148270A128A15730883123E
:101C80000313AC007208AB007108AA007008A90029
:101C90000A128A1197240A128A158312031328083C
:101CA000E0002708DF002608DE002508DD000A1214
:101CB0008A113F220A128A15831203135C088316C5
:101CC0000313B300831203135B0883160313B200DC
:101CD000831203135A0883160313B10083120313EC
:101CE000590883160313B0000800FF30831603134E
:101CF000B6000330B70034083602B8003508031CBC
:101D0000350A3702B900BA01B91BBA033A08BB0059
:101D1000C13083120313DC002030DB000030DA0016
:101D20000030D900831603133B08F3003A08F20091
:101D30003908F1003808F00001300A168A114827E6
:101D40000A128A15730883120313C2007208C100B5
:101D50007108C0007008BF004630C6002030C500C2
:101D60002830C4000030C3000A128A1170200A1201
:101D70008A15831203134208E0004108DF0040087F
:101D8000DE003F08DD000A128A113F220A128A157E
:101D9000831203135C0883160313BF00831203131B
:101DA0005B0883160313BE00831203135A088316BD
:101DB0000313BD0083120313590883160313BC00D9
:101DC000413083120313C2002030C1000030C00034
:101DD0000030BF00831603133F0883120313C600AD
:101DE000831603133E0883120313C50083160313DF
:101DF0003D0883120313C400831603133C088312A7
:101E00000313C3000A128A1170200A128A15831262
:101E10000313420883160313B3008312031341080C
:101E200083160313B20083120313400883160313AF
:101E3000B100831203133F0883160313B0000A1284
:101E40008A152F250A128A15831603133308C30037
:101E50003208C2003108C1003008C000413083128E
:101E60000313DC005B30DB009830DA00EA30D90085
:101E700083160313430883120313E000831603132E
:101E8000420883120313DF008316031341088312F1
:101E90000313DE0083160313400883120313DD00CF
:101EA0000A128A113F220A128A15831203135C0850
:101EB000C2005B08C1005A08C0005908BF00453085
:101EC000C6007F30C500A030C4000030C3000A1235
:101ED0008A1170200A128A1583120313420883168E
:101EE0000313C70083120313410883160313C600AC
:101EF00083120313400883160313C50083120313D0
:101F00003F0883160313C400C33083120313DC009D
:101F10008830DB008030DA000030D90083160313EC
:101F2000470883120313E000831603134608831245
:101F30000313DF0083160313450883120313DE0027
:101F400083160313440883120313DD000A128A1157
:101F50003F220A128A15831203135C0883160313A7
:101F6000CB00831203135B0883160313CA0083128A
:101F700003135A0883160313C90083120313590865
:101F800083160313C800433083120313DC00883028
:101F9000DB009330DA003330D900831603134B088B
:101FA00083120313E000831603134A0883120313FA
:101FB000DF0083160313490883120313DE00831620
:101FC0000313480883120313DD000A128A113F220B
:101FD0000A128A15831603134B08F3004A08F2000D
:101FE0004908F1004808F0000A168A1185250A12EE
:101FF0008A15710883160313B5007008B400080031
:1023B400F030FF007F08831603138605F030FF001A
:1023C4007F088604811383160317890108000130EE
:1023D4000A168A11AB230A168A110830F400C93090
:1023E400F300F30BF329F40BF329F8290800313433
:1023F400323433344134343435343634423437347B
:102404003834393443342A343034233444347E0861
:102414008A007F0882000A168A1109220A168A1184
:102424008000840A04087D0603190034FF0A031996
:10243400FE0A0D2AF001831203138718222A232A85
:10244400252AF001F00A071C282A292A2B2AF00140
:10245400F00A071D2E2A2F2A312AF001F00A7008EB
:10246400080070080F39F200F20DF20D8312031305
:102474001F087206C33972069F001F141330F2003E
:10248400F20B422A452A831203139F149F184B2AE6
:102494004C2A482A1F101E08F100831603131E0835
:1024A400F000080001308312031389000B30F2009E
:1024B4002630F1005D30F000F00B5E2AF10B5E2A4D
:1024C400F20B5E2A652A8312031389010B30F20092
:1024D4002630F1005D30F000F00B6E2AF10B6E2A0D
:1024E400F20B6E2A752A542A08008C2A7408FF00FD
:1024F400730884000A128A1500200A168A110A1623
:102504008A11E1230A168A110130F3070318F40A29
:102514000030F407740883120313FF007308840067
:102524000A128A1500200A168A11003A031D9B2AF2
:102534009C2A782A0800F800023078020318A32A9B
:10254400A42AAF2A75080F398038F90079080A16C9
:102554008A11AB230A168A11B92A75080F39C038B3
:10256400F90079080A168A11AB230A168A1176082B
:10257400F3007708F4000A168A1177220A168A11E2
:102584000800F800F401F5017008F200F301720884
:10259400F6007308F700781CD02AD12AD72A7608C7
:1025A400F4070318F50A7708F50701300310F60D50
:1025B400F70DFF3E031DD82A0310F80C7808031DFD
:1025C400E42AE52ACD2A7508F1007408F000080011
:1025D4008316031388012730F400F530F300F30B5E
:1025E400F12AF40BF12A02300A168A11AB230A16D7
:1025F4008A1128300A168A11AB230A168A1101306F
:102604000A168A11AB230A168A110C300A168A118B
:10261400AB230A168A1106300A168A11AB230A164E
:102624008A1108000A168A11E9210A168A11F5018D
:10263400B030F6008030F70000300A168A119D226F
:102644000A168A11F5019430F6008030F700023042
:102654000A168A119D220A168A110A168A11542210
:102664000A168A113330FC00BB30FB00DF30FA005D
:10267400FA0B3A2BFB0B3A2BFC0B3A2B412B023077
:1026840083120313EF0008000A168A11E9210A16BF
:102694008A11F501B030F6008030F70000300A16D8
:1026A4008A119D220A168A11F5018A30F6008030BB
:1026B400F70002300A168A119D220A168A110A1698
:1026C4008A1154220A168A113330FC00BB30FB00F5
:1026D400DF30FA00FA0B6C2BFB0B6C2BFC0B6C2B16
:1026E400732B83120313EF01EF0A08000A168A11F1
:1026F400E9210A168A11F501A830F6008030F700A6
:1027040000300A168A119D220A168A11F5019E309C
:10271400F6008030F70002300A168A119D220A164C
:102724008A11013083120313890083160313E40111
:10273400E0016630FC007630FB00C130FA00FA0B91
:10274400A12BFB0BA12BFC0BA12B83120313EF0179
:102754000800F200F0307205F00083120313080839
:102764000F397004880008108814000083120313C2
:1027740088100330F1009730F000F00BBF2BF10B01
:10278400BF2BC42B7208F00004300310F00DFF3E81
:10279400031DC72B8312031308080F397004880024
:1027A400881400008312031388100830F100C93024
:1027B400F000F00BDB2BF10BDB2BE02B0800F2001D
:1027C400F0307205F0008312031308080F39700407
:1027D400880008148814000083120313881003303F
:1027E400F1009730F000F00BF52BF10BF52BFA2BE1
:1027F4007208F00004300310F00DFF3E031DFD2BA2
:102804008312031308080F39700488008814000029
:102814008312031388100830F100C930F000F00B64
:10282400112CF10B112C162C0800770878040319CD
:102834001C2C1D2C4C2CFB01FB0A2B2C01300310EF
:10284400F70DF80DFF3E031D212C0130FF007F081A
:10285400FB07F81F2E2C2F2C202C78087A02031D3E
:10286400352C77087902031C382C392C3F2C770837
:10287400F9027808031CFA03FA0201300310F80C79
:10288400F70CFF3E031D402C0130FB02031D4B2CB3
:102894004C2C2F2C7A08F8007908F7000800F40172
:1028A400F501700871040319582C592C902CF60169
:1028B400F60A672C01300310F00DF10DFF3E031DE5
:1028C4005D2C0130FF007F08F607F11F6A2C6B2C8A
:1028D4005C2C01300310F40DF50DFF3E031D6C2C30
:1028E40071087302031D782C70087202031C7B2C80
:1028F4007C2C832C7008F2027108031CF303F3028E
:10290400741401300310F10CF00CFF3E031D842CF1
:102914000130F602031D8F2C902C6B2C7508F100EE
:102924007408F0000800F500CA2C750884008313AD
:10293400000803199E2C9F2CAF2C700884000A12E7
:102944008A150A200A168A11F30075088400000803
:1029540073060319AE2CAF2CC22C700884000A1223
:102964008A150A200A168A11F300750884000008E3
:10297400F40073087402F000F101031CF103DA2C73
:102984000130FF007F08F5070130FF007F08F007E2
:102994000130F1020030031CF203F202710A031D3C
:1029A400D72C720A031DD72CD82C972CF001F101D7
:1029B400080000307005F80000307105F90080301F
:1029C4007205FA007F307305FB007B087A047904F2
:1029D4007804031DEE2CEF2CF72C0030F3000030AC
:1029E400F2000030F1000030F00000307405F8000F
:1029F40000307505F90080307605FA007F307705E0
:102A0400FB007B087A0479047804031D0A2D0B2D3E
:102A1400132D0030F7000030F6000030F5000030D0
:102A2400F40077087306031D212D76087206031D32
:102A3400212D75087106031D212D740870060319D4
:102A4400242D252D272D0310282D0314080083126F
:102A540003132308F3002208F2002108F1002008E0
:102A6400F0000030F7000030F6000030F5000030D0
:102A7400F4000A168A11DB240A168A11031C432D5A
:102A8400442D552D831203132408840083138001DD
:102A9400840A80010030A3000030A2000030A100AD
:102AA4000030A000842D8312031323087F39FC0017
:102AB400FD010310FC0DFD0D240884007C08831324
:102AC4008000840A7D088000220D220D0139FC005B
:102AD400FD01240884007C088004840A7D088004A5
:102AE4002408840082308007840F00080318000A39
:102AF400FF00FF307F0780008403230880393F38BC
:102B0400A300A21308000310720D730DF9007908D5
:102B1400031D8D2D8E2D972D0030F3000030F20013
:102B24000030F1000030F000FA2D7008F400710854
:102B3400F5007208F6007308F7001F300310F70C55
:102B4400F60CF50CF40CFF3E031DA02D7408F800E0
:102B5400F217FF30F005FF30F105FF30F2050030C9
:102B6400F3059630F902F91FB82DB92DD32D790844
:102B7400803A973E0318BF2DC02DC12D8E2D0130F4
:102B84000310F30CF20CF10CF00CFF3E031DC22DEC
:102B94000130FF007F08F907031DD12DD22DC12D6F
:102BA400EA2D20307902031CD82DD92DE52D8E2D48
:102BB4000130F4000310F00DF10DF20DF30DF40BE0
:102BC400DC2D0130F9027908031DE92DEA2DDA2DF7
:102BD40078080319EE2DEF2DFA2DF009F109F20909
:102BE400F309F00A0319F10A0319F20A0319F30AA3
:102BF400080000307005F80000307105F9008030DD
:102C04007205FA007F307305FB007B087A047904AF
:102C14007804031D0E2E0F2E172E0030F300003003
:102C2400F2000030F1000030F00000307405F800CC
:102C340000307505F90080307605FA007F3077059D
:102C4400FB007B087A0479047804031D2A2E2B2EBA
:102C5400332E0030F7000030F6000030F50000306D
:102C6400F400F31F362E372E5B2E0030F8000030B0
:102C7400F9000030FA008030FB007008F802710897
:102C8400031C710F462E472EF9027208031C720FA3
:102C94004C2E4D2EFA027308031C730F522E532E22
:102CA400FB027B08F3007A08F2007908F100780847
:102CB400F000F71F5E2E5F2E832E0030F8000030E8
:102CC400F9000030FA008030FB007408F80275083F
:102CD400031C750F6E2E6F2EF9027608031C760FF7
:102CE400742E752EFA027708031C770F7A2E7B2E2A
:102CF400FB027B08F7007A08F6007908F5007808EB
:102D0400F4008030F3068030F70677087302031D61
:102D1400952E76087202031D952E75087102031D07
:102D2400952E740870020318982E992E9B2E03106A
:102D34009C2E031408000A168A11E9210A168A1126
:102D44000630831203138900F5016630F6008030E3
:102D5400F70000300A168A119D220A168A11C03023
:102D64000A168A11AB230A168A110A128A157922C5
:102D74000A168A11FD007D080319C12EC22ED42E15
:102D84002A300A168A11E1230A168A1183160313BC
:102D94006408E53E84007D08831380000130FF0051
:102DA4007F08E4070230FC000430FB00BA30FA006C
:102DB400FA0BDA2EFB0BDA2EFC0BDA2E00000530B0
:102DC400831603136402031CE82EE92EB72E2F305A
:102DD400F0000430F1000030F200E5300A168A11E8
:102DE40095240A168A1170087104031DFA2EFB2E0D
:102DF400122F0A168A11E9210A168A11F501573091
:102E0400F6008030F70000300A168A119D220A1657
:102E14008A1183120313EF01EF0A023089003A2F5B
:102E24000A168A11E9210A168A11F5014630F600BC
:102E34008030F70000300A168A119D220A168A1182
:102E440083160313E4010130FF007F08E007033019
:102E54008312031389000B30FC002630FB005D3025
:102E6400FA00FA0B332FFB0B332FFC0B332F3A2FC3
:102E74000330831603136002031C412F422F472F94
:102E8400E401033083120313EF000800F80078080C
:102E940003194D2F4E2F622FF31F512F522F622FE4
:102EA4007009FA007109FB007209FC007309FD0046
:102EB400FA0A0319FB0A0319FC0A0319FD0A6A2F0B
:102EC4007308FD007208FC007108FB007008FA002A
:102ED4007308720471047004031D712F722F7B2F09
:102EE4000030F3000030F2000030F1000030F00058
:102EF400FF2F9630F9008B2F0130FF007F08F90770
:102F040001300310FD0CFC0CFB0CFA0CFF3E031DFE
:102F1400832FFE307D05031D902F912F7E2FAD2F23
:102F24000130FF007F08F9070130FA070030031869
:102F34000130FB07003003180130FC070030031890
:102F44000130FD0701300310FD0CFC0CFB0CFA0CE6
:102F5400FF3E031DA52FFF307D05031DB22FB32FA8
:102F6400922FBF2F0130F9020130F4000310FA0D43
:102F7400FB0DFC0DFD0DF40BB82FFC1BC22FC32F52
:102F8400C92F023079020318C82FC92FB42F79181A
:102F9400CC2FCD2FD52FFF30FA05FF30FB057F3026
:102FA400FC05FF30FD050310F90C7908F400F50168
:102FB400F601F70118300310F40DF50DF60DF70DB9
:102FC400FF3E031DDD2F7408FA047508FB04760820
:102FD400FC047708FD0478080319F12FF22FF72F6A
:102FE400F31FF52FF62FF72FFD177D08F3007C084C
:0C2FF400F2007B08F1007A08F0000800F1
:04400E00D520FF3F7B
:00000001FF
